{
  "contractName": "TaskChain",
  "abi": [
    {
      "inputs": [],
      "name": "taskCount",
      "outputs": [
        {
          "internalType": "uint256",
          "name": "",
          "type": "uint256"
        }
      ],
      "stateMutability": "view",
      "type": "function"
    },
    {
      "inputs": [
        {
          "internalType": "uint256",
          "name": "",
          "type": "uint256"
        }
      ],
      "name": "tasks",
      "outputs": [
        {
          "internalType": "uint256",
          "name": "id",
          "type": "uint256"
        },
        {
          "internalType": "string",
          "name": "name",
          "type": "string"
        },
        {
          "internalType": "string",
          "name": "description",
          "type": "string"
        },
        {
          "internalType": "uint256",
          "name": "deadline",
          "type": "uint256"
        },
        {
          "internalType": "bool",
          "name": "completed",
          "type": "bool"
        }
      ],
      "stateMutability": "view",
      "type": "function"
    },
    {
      "inputs": [
        {
          "internalType": "string",
          "name": "_name",
          "type": "string"
        },
        {
          "internalType": "string",
          "name": "_description",
          "type": "string"
        },
        {
          "internalType": "uint256",
          "name": "_deadline",
          "type": "uint256"
        }
      ],
      "name": "createTask",
      "outputs": [],
      "stateMutability": "nonpayable",
      "type": "function"
    },
    {
      "inputs": [
        {
          "internalType": "uint256",
          "name": "_id",
          "type": "uint256"
        },
        {
          "internalType": "bool",
          "name": "_completed",
          "type": "bool"
        },
        {
          "internalType": "uint256",
          "name": "_newDeadline",
          "type": "uint256"
        }
      ],
      "name": "updateTask",
      "outputs": [],
      "stateMutability": "nonpayable",
      "type": "function"
    }
  ],
  "bytecode": "0x60806040525f600155348015610013575f80fd5b50610a58806100215f395ff3fe608060405234801561000f575f80fd5b506004361061004a575f3560e01c806341a4e30a1461004e5780635ea71e9d1461006a5780638d97767214610086578063b6cb58a5146100ba575b5f80fd5b6100686004803603810190610063919061049d565b6100d8565b005b610084600480360381019061007f919061055a565b610191565b005b6100a0600480360381019061009b91906105aa565b6101ce565b6040516100b195949392919061066d565b60405180910390f35b6100c2610317565b6040516100cf91906106cc565b60405180910390f35b60015f8154809291906100ea90610712565b91905055506040518060a0016040528060015481526020018481526020018381526020018281526020015f15158152505f8060015481526020019081526020015f205f820151815f015560208201518160010190816101499190610953565b50604082015181600201908161015f9190610953565b50606082015181600301556080820151816004015f6101000a81548160ff021916908315150217905550905050505050565b5f805f8581526020019081526020015f20905082816004015f6101000a81548160ff02191690831515021790555081816003018190555050505050565b5f602052805f5260405f205f91509050805f0154908060010180546101f290610786565b80601f016020809104026020016040519081016040528092919081815260200182805461021e90610786565b80156102695780601f1061024057610100808354040283529160200191610269565b820191905f5260205f20905b81548152906001019060200180831161024c57829003601f168201915b50505050509080600201805461027e90610786565b80601f01602080910402602001604051908101604052809291908181526020018280546102aa90610786565b80156102f55780601f106102cc576101008083540402835291602001916102f5565b820191905f5260205f20905b8154815290600101906020018083116102d857829003601f168201915b505050505090806003015490806004015f9054906101000a900460ff16905085565b60015481565b5f604051905090565b5f80fd5b5f80fd5b5f80fd5b5f80fd5b5f601f19601f8301169050919050565b7f4e487b71000000000000000000000000000000000000000000000000000000005f52604160045260245ffd5b61037c82610336565b810181811067ffffffffffffffff8211171561039b5761039a610346565b5b80604052505050565b5f6103ad61031d565b90506103b98282610373565b919050565b5f67ffffffffffffffff8211156103d8576103d7610346565b5b6103e182610336565b9050602081019050919050565b828183375f83830152505050565b5f61040e610409846103be565b6103a4565b90508281526020810184848401111561042a57610429610332565b5b6104358482856103ee565b509392505050565b5f82601f8301126104515761045061032e565b5b81356104618482602086016103fc565b91505092915050565b5f819050919050565b61047c8161046a565b8114610486575f80fd5b50565b5f8135905061049781610473565b92915050565b5f805f606084860312156104b4576104b3610326565b5b5f84013567ffffffffffffffff8111156104d1576104d061032a565b5b6104dd8682870161043d565b935050602084013567ffffffffffffffff8111156104fe576104fd61032a565b5b61050a8682870161043d565b925050604061051b86828701610489565b9150509250925092565b5f8115159050919050565b61053981610525565b8114610543575f80fd5b50565b5f8135905061055481610530565b92915050565b5f805f6060848603121561057157610570610326565b5b5f61057e86828701610489565b935050602061058f86828701610546565b92505060406105a086828701610489565b9150509250925092565b5f602082840312156105bf576105be610326565b5b5f6105cc84828501610489565b91505092915050565b6105de8161046a565b82525050565b5f81519050919050565b5f82825260208201905092915050565b5f5b8381101561061b578082015181840152602081019050610600565b5f8484015250505050565b5f610630826105e4565b61063a81856105ee565b935061064a8185602086016105fe565b61065381610336565b840191505092915050565b61066781610525565b82525050565b5f60a0820190506106805f8301886105d5565b81810360208301526106928187610626565b905081810360408301526106a68186610626565b90506106b560608301856105d5565b6106c2608083018461065e565b9695505050505050565b5f6020820190506106df5f8301846105d5565b92915050565b7f4e487b71000000000000000000000000000000000000000000000000000000005f52601160045260245ffd5b5f61071c8261046a565b91507fffffffffffffffffffffffffffffffffffffffffffffffffffffffffffffffff820361074e5761074d6106e5565b5b600182019050919050565b7f4e487b71000000000000000000000000000000000000000000000000000000005f52602260045260245ffd5b5f600282049050600182168061079d57607f821691505b6020821081036107b0576107af610759565b5b50919050565b5f819050815f5260205f209050919050565b5f6020601f8301049050919050565b5f82821b905092915050565b5f600883026108127fffffffffffffffffffffffffffffffffffffffffffffffffffffffffffffffff826107d7565b61081c86836107d7565b95508019841693508086168417925050509392505050565b5f819050919050565b5f61085761085261084d8461046a565b610834565b61046a565b9050919050565b5f819050919050565b6108708361083d565b61088461087c8261085e565b8484546107e3565b825550505050565b5f90565b61089861088c565b6108a3818484610867565b505050565b5b818110156108c6576108bb5f82610890565b6001810190506108a9565b5050565b601f82111561090b576108dc816107b6565b6108e5846107c8565b810160208510156108f4578190505b610908610900856107c8565b8301826108a8565b50505b505050565b5f82821c905092915050565b5f61092b5f1984600802610910565b1980831691505092915050565b5f610943838361091c565b9150826002028217905092915050565b61095c826105e4565b67ffffffffffffffff81111561097557610974610346565b5b61097f8254610786565b61098a8282856108ca565b5f60209050601f8311600181146109bb575f84156109a9578287015190505b6109b38582610938565b865550610a1a565b601f1984166109c9866107b6565b5f5b828110156109f0578489015182556001820191506020850194506020810190506109cb565b86831015610a0d5784890151610a09601f89168261091c565b8355505b6001600288020188555050505b50505050505056fea2646970667358221220b33ffc5f3b6d1dacdd8ed553ea1ff97a9174ca5be375fcf73d6e426979b055c464736f6c63430008150033",
  "immutableReferences": {},
  "source": "// SPDX-License-Identifier: MIT\r\npragma solidity ^0.8.0;\r\n\r\ncontract TaskChain {\r\n    struct Task {\r\n        uint id;\r\n        string name;\r\n        string description;\r\n        uint deadline;\r\n        bool completed;\r\n    }\r\n\r\n    mapping(uint => Task) public tasks;\r\n    uint public taskCount = 0;\r\n\r\n    // Membuat tugas baru\r\n    function createTask(string memory _name, string memory _description, uint _deadline) public {\r\n        taskCount++;\r\n        tasks[taskCount] = Task(taskCount, _name, _description, _deadline, false);\r\n    }\r\n\r\n    // Memperbarui status atau deadline tugas\r\n    function updateTask(uint _id, bool _completed, uint _newDeadline) public {\r\n        Task storage task = tasks[_id];\r\n        task.completed = _completed;\r\n        task.deadline = _newDeadline;\r\n    }\r\n}\r\n",
  "sourcePath": "C:\\code\\Blockchain\\contracts\\TaskChain.sol",
  "compiler": {
    "name": "solc",
    "version": "0.8.21+commit.d9974bed.Emscripten.clang"
  },
  "schemaVersion": "3.4.16",
  "updatedAt": "2024-11-13T07:28:11.992Z",
  "devdoc": {
    "kind": "dev",
    "methods": {},
    "version": 1
  },
  "userdoc": {
    "kind": "user",
    "methods": {},
    "version": 1
  }
}